:10000000AFC00000D7C00000DFC00000E7C00000A4
:10001000EFC00000F7C00000FFC0000007C10000F3
:100020000FC1000017C100001FC1000027C1000060
:100030002FC1000037C100003FC1000047C10000D0
:1000400095C100009DC10000A5C10000CBC100000A
:10005000D3C10000DBC10000E3C10000EBC1000020
:10006000F3C10000FBC1000003C200000BC200008E
:1000700013C200001BC2000023C2000066C20000C1
:100080006EC2000076C200007EC2000065087108E2
:100090008D08A408BA08D008EE08EE08E608076341
:1000A0004236B79BD8A71A39685618AEBAAB558CEA
:1000B0001D3CB7CC5763BD6DEDFD753EF617723133
:1000C000BF000000803F08000000BE922449123E9D
:1000D000ABAAAA2ABECDCCCC4C3E00000080BEAB61
:1000E000AAAAAA3E00000000BF000000803F000056
:1000F000000000084178D3BB4387D1133D190E3C63
:10010000C3BD4282AD2B3E68EC8276BED98FE1A999
:100110003E4C80EFFFBE01C4FF7F3F0000000000A7
:10012000001F000000001F00001F101010101F0013
:10013000001F181818181F00001F1C1C1C1C1F0073
:10014000001F1E1E1E1E1F00001F1F1F1F1F1F003F
:1001500003070F1F0F070300181C1E1F1E1C18008B
:1001600011241FBECFEFD0E1DEBFCDBF11E0A0E074
:10017000B1E0E0E2F7E200E00BBF02C007900D92B1
:10018000AC38B107D9F722E0ACE8B1E001C01D926C
:10019000A930B207E1F70E94A20C0C948E1380E004
:1001A00090E0FC01E056FE4F1082019682339105EB
:1001B000C1F708951F920F920FB60F9211240F905E
:1001C0000FBE0F901F9018951F920F920FB60F92AF
:1001D00011240F900FBE0F901F9018951F920F9231
:1001E0000FB60F9211240F900FBE0F901F9018950D
:1001F0001F920F920FB60F9211240F900FBE0F9007
:100200001F9018951F920F920FB60F9211240F9006
:100210000FBE0F901F9018951F920F920FB60F925E
:1002200011240F900FBE0F901F9018951F920F92E0
:100230000FB60F9211240F900FBE0F901F901895BC
:100240001F920F920FB60F9211240F900FBE0F90B6
:100250001F9018951F920F920FB60F9211240F90B6
:100260000FBE0F901F9018951F920F920FB60F920E
:1002700011240F900FBE0F901F9018951F920F9290
:100280000FB60F9211240F900FBE0F901F9018956C
:100290001F920F920FB60F9211240F900FBE0F9066
:1002A0001F9018951F920F920FB60F9211240F9066
:1002B0000FBE0F901F9018951F920F920FB60F92BE
:1002C00011240F900FBE0F901F9018951F920F9240
:1002D0000FB60F9211242F933F935F936F937F93E9
:1002E0008F939F93AF93BF9320918C0130918D0199
:1002F0002F5F3F4F30938D0120938C01609110014F
:1003000070911101C9010E948C10892B29F48091F0
:100310009C018F5F80939C01609114017091150185
:10032000C9010E948C10892B29F480919E018F5F56
:1003300080939E016091120170911301C9010E9486
:100340008C10892B29F480919D018F5F80939D01F2
:10035000BF91AF919F918F917F916F915F913F91ED
:100360002F910F900FBE0F901F9018951F920F9214
:100370000FB60F9211240F900FBE0F901F9018957B
:100380001F920F920FB60F9211240F900FBE0F9075
:100390001F9018951F920F920FB60F9211240BB653
:1003A0000F922F933F934F935F936F937F938F930E
:1003B0009F93AF93BF93EF93FF9331D2F0D1FF910F
:1003C000EF91BF91AF919F918F917F916F915F91CD
:1003D0004F913F912F910F900BBE0F900FBE0F903A
:1003E0001F9018951F920F920FB60F9211240F9025
:1003F0000FBE0F901F9018951F920F920FB60F927D
:1004000011240F900FBE0F901F9018951F920F92FE
:100410000FB60F9211240F900FBE0F901F901895DA
:100420001F920F920FB60F9211240F900FBE0F90D4
:100430001F9018951F920F920FB60F9211240F90D4
:100440000FBE0F901F9018951F920F920FB60F922C
:1004500011240F900FBE0F901F9018951F920F92AE
:100460000FB60F9211240F900FBE0F901F9018958A
:100470001F920F920FB60F9211240F900FBE0F9084
:100480001F9018951F920F920FB60F9211240F9084
:100490000FBE0F901F9018951F920F920FB60F92DC
:1004A00011240F900FBE0F901F9018951F920F925E
:1004B0000FB60F9211240F900FBE0F901F9018953A
:1004C0001F920F920FB60F9211240BB60F922F931B
:1004D0003F934F935F936F937F938F939F93AF93CC
:1004E000BF93CF93EF93FF938ED1C82F94D1CC3786
:1004F00031F41092D20181E080939F0112C0E0910B
:10050000D201F0E0E056FE4FC0838091D2018F5FB0
:100510008093D2018091D201843318F01092D201DD
:100520003EDEFF91EF91CF91BF91AF919F918F915F
:100530007F916F915F914F913F912F910F900BBEE3
:100540000F900FBE0F901F9018951F920F920FB62D
:100550000F9211240F900FBE0F901F9018951F92AD
:100560000F920FB60F9211240F900FBE0F901F9095
:1005700018951F920F920FB60F9211240F900FBE75
:100580000F901F9018951F920F920FB60F92112483
:100590000F900FBE0F901F901895982F907F95BBCE
:1005A000A89AAA9AE3EFF1E03197F1F700C00000B2
:1005B000AA98A898E3EFF1E03197F1F700C00000A6
:1005C000F0E18F9FC001112485BBA89AAA9A83EFFE
:1005D00091E00197F1F700C00000AA98A898E3EF16
:1005E000F1E03197F1F700C000000895982F907F57
:1005F00095BBAA9AE3EFF1E03197F1F700C0000054
:10060000AA98E3EFF1E03197F1F700C00000F0E1C4
:100610008F9FC001112485BBAA9A83EF91E00197B7
:10062000F1F700C00000AA98E3EFF1E03197F1F78D
:1006300000C00000089581E0D9DF84E491E00197D3
:10064000F1F700C0000008950F931F93CF93DF933D
:10065000FC0101900020E9F731971E2F181B00972D
:1006600059F0112349F0082FC02FD92F899195DF18
:100670008C2F801B8117D0F3DF91CF911F910F91A9
:100680000895623031F0633031F0613029F4805CDC
:1006900003C08C5E01C08C5A8068A8CF0895EF9289
:1006A000FF920F931F93CF93DF938C01660F660F1A
:1006B000660F6064E62EC0E0D0E0F801EC0FFD1F8D
:1006C000F4908C2F8E0D92DF8F2D67DF2196C8302E
:1006D000D10599F7DF91CF911F910F91FF90EF9086
:1006E00008951F93CF93DF938BE49DE10197F1F77A
:1006F00000C0000015BA15BA84B3806F84BB84B300
:10070000876084BB80E385BBAA9A83EF91E0019761
:10071000F1F700C00000AA9883EF91E00197F1F78C
:1007200000C0000080E385BBAA9A83EF91E00197A7
:10073000F1F700C00000AA9883EF91E00197F1F76C
:1007400000C0000080E285BBAA9A83EF91E0019788
:10075000F1F700C00000AA9883EF91E00197F1F74C
:1007600000C0000088E242DF8CE040DFC0E2D1E060
:1007700060E011E0160FCE0192DF2896183011F0DC
:10078000612FF7CFDF91CF911F910895909398003B
:100790008093990040939A0060939D000895EBE93F
:1007A000F0E0908195FFFDCF80939C000895EF923B
:1007B000FF920F931F93CF93DF93FC01DC010D9009
:1007C0000020E9F711977D01E81AF90A1E141F04A9
:1007D0009CF48081882381F08F010F5F1F4FC0E060
:1007E000D0E005C0F80181918F01882329F0D7DF7F
:1007F0002196EC16FD06B1F7DF91CF911F910F9175
:10080000FF90EF900895EBE9F0E080818823ECF70A
:1008100080919C0008955D9BFECF8CB908955F9BED
:10082000FECF8CB1089583B7856083BF83B788609E
:1008300083BF8CE781BF87B7826087BF08958F70C1
:10084000823089F018F4813031F00BC0843029F007
:10085000883029F006C082E0089584E0089581E0A0
:10086000089580E0089583E00895282F409196012F
:100870005091970141155105B9F0E82FF0E06091D2
:10088000940170919501E617F70781F54330510502
:100890007CF54F5F5F4F5093970140939601433033
:1008A000510541F1452B71F4422F50E050939501D1
:1008B0004093940141E050E050939701409396019A
:1008C00080E001C080E030E04091940150919501BA
:1008D0002417350781F0309395012093940121E08E
:1008E00030E03093970120939601089580E0EBCF9C
:1008F00080E0E9CFE8CF08954F925F926F927F92A8
:100900008F929F92AF92BF92CF92DF92EF92FF921F
:10091000CF93DF9300D000D0CDB7DEB720E030E03A
:1009200040E05FE36091E5017091E6018091E701AD
:100930009091E8010E94CF0F6B017C014090EB0188
:100940005090EC016090ED017090EE0180900C01F0
:1009500090900D01A0900E01B0900F01A3019201A3
:100960000E940D0DA50194010E94710D88239CF534
:100970008091080190910901A0910A01B0910B01A9
:1009800089839A83AB83BC83A70196016091F001B0
:100990007091F1018091F2019091F3010E940C0D90
:1009A00029813A814B815C810E94160F18169CF4B4
:1009B00029813A814B815C81C701B6010E940D0DEE
:1009C0009B01AC01C501B4010E94160F18161CF45E
:1009D00081E080939201A7019601C301B2010E94B8
:1009E0000C0D9B01AC01C501B4010E94710D88235F
:1009F0004CF1409008015090090160900A017090FC
:100A00000B01A7019601C301B2010E940C0D9B01CD
:100A1000AC01C501B4010E94710D88239CF02091A6
:100A2000F0013091F1014091F2015091F301C701C1
:100A3000B601F3D79B01AC01C301B2010E94160FAE
:100A4000181614F410929201809192010F900F9059
:100A50000F900F90DF91CF91FF90EF90DF90CF90AC
:100A6000BF90AF909F908F907F906F905F904F90CE
:100A700008954F925F926F927F928F929F92AF9262
:100A8000BF92CF92DF92EF92FF9220E030E040E001
:100A90005FE36091E5017091E6018091E70190913B
:100AA000E8010E94CF0F4B015C014090EB01509098
:100AB000EC016090ED017090EE01C0900C01D090BF
:100AC0000D01E0900E01F0900F01A3019201A5D756
:100AD000A70196010E94710D8823B4F4A501940129
:100AE0006091E1017091E2018091E3019091E40154
:100AF00093D79B01AC01C701B6010E94160F1816CF
:100B00001CF481E080939101A5019401C301B2011D
:100B100083D79B01AC01C701B601E3D7882394F0CA
:100B2000A50194016091E1017091E2018091E301DE
:100B30009091E40171D79B01AC01C701B601D1D7F7
:100B4000882314F41092910180919101FF90EF900D
:100B5000DF90CF90BF90AF909F908F907F906F90DD
:100B60005F904F9008954F925F926F927F928F9215
:100B70009F92AF92BF92CF92DF92EF92FF92CF936C
:100B8000DF9300D000D0CDB7DEB720E030E040E00A
:100B90005FE36091E5017091E6018091E70190913A
:100BA000E8010E94CF0F6B017C014090D30150906F
:100BB000D4016090D5017090D60180900001909092
:100BC0000101A0900201B0900301A301920125D779
:100BD000A501940186D788238CF580910801909116
:100BE0000901A0910A01B0910B0189839A83AB831B
:100BF000BC83A70196016091F0017091F101809191
:100C0000F2019091F30108D729813A814B815C81EF
:100C10000E94160F181694F429813A814B815C8149
:100C2000C701B601FAD69B01AC01C501B4010E940F
:100C3000160F18161CF481E080939001A70196010D
:100C4000C301B201E9D69B01AC01C501B40149D78A
:100C500088233CF1409008015090090160900A01FE
:100C600070900B01A7019601C301B201D5D69B017B
:100C7000AC01C501B40135D788239CF02091F00167
:100C80003091F1014091F2015091F301C701B60199
:100C9000C4D69B01AC01C301B2010E94160F181605
:100CA00014F410929001809190010F900F900F908A
:100CB0000F90DF91CF91FF90EF90DF90CF90BF909A
:100CC000AF909F908F907F906F905F904F9008951E
:100CD000CF92DF92EF92FF928823B1F020E030E0D4
:100CE00040E85FE36091EB017091EC018091ED01D0
:100CF0009091EE0192D66093EB017093EC0180939A
:100D0000ED019093EE0115C020E030E040E85FE394
:100D10006091EB017091EC018091ED019091EE01F9
:100D20007BD66093EB017093EC018093ED0190937F
:100D3000EE01C090EB01D090EC01E090ED01F0905D
:100D4000EE0120E030E048E453E4C701B6010E9420
:100D5000160F18166CF480E090E0A8E4B3E48093DA
:100D6000EB019093EC01A093ED01B093EE0115C05F
:100D700020E030E048E453ECC701B601B2D6882346
:100D800064F480E090E0A8E4B3EC8093EB019093EE
:100D9000EC01A093ED01B093EE01FF90EF90DF9096
:100DA000CF900895CF92DF92EF92FF928823B1F017
:100DB00020E030E040E85FE36091F0017091F101E4
:100DC0008091F2019091F30128D66093F001709325
:100DD000F1018093F2019093F30115C020E030E01F
:100DE00040E85FE36091F0017091F1018091F201C0
:100DF0009091F30111D66093F0017093F10180930B
:100E0000F2019093F301C090F001D090F101E090D5
:100E1000F201F090F30120E030E048E453E4C70130
:100E2000B6010E94160F18166CF480E090E0A8E45A
:100E3000B3E48093F0019093F101A093F201B09399
:100E4000F30115C020E030E048E453ECC701B601DF
:100E500048D6882364F480E090E0A8E4B3EC809363
:100E6000F0019093F101A093F201B093F301FF9090
:100E7000EF90DF90CF900895CF92DF92EF92FF92A4
:100E80008823B1F020E030E040E85FE36091E101C9
:100E90007091E2018091E3019091E401BED56093ED
:100EA000E1017093E2018093E3019093E40115C0A6
:100EB00020E030E040E85FE36091E1017091E20101
:100EC0008091E3019091E401A7D56093E1017093D3
:100ED000E2018093E3019093E401C090E101D0909E
:100EE000E201E090E301F090E40120E030E048E42A
:100EF00053E4C701B6019AD718166CF480E090E06D
:100F0000A8E4B3E48093E1019093E201A093E301AC
:100F1000B093E40115C020E030E048E453ECC70191
:100F2000B601DFD5882364F480E090E0A8E4B3EC58
:100F30008093E1019093E201A093E301B093E40177
:100F4000FF90EF90DF90CF900895CF92DF92EF92D5
:100F5000FF928823B1F020E030E040E85FE3609149
:100F6000D3017091D4018091D5019091D60155D5CE
:100F70006093D3017093D4018093D5019093D601EF
:100F800015C020E030E040E85FE36091D30170914C
:100F9000D4018091D5019091D6013ED56093D301C3
:100FA0007093D4018093D5019093D601C090D30162
:100FB000D090D401E090D501F090D60120E030E04F
:100FC00048E453E4C701B60131D718166CF480E049
:100FD00090E0A8E4B3E48093D3019093D401A0936C
:100FE000D501B093D60115C020E030E048E453ECC1
:100FF000C701B60176D5882364F480E090E0A8E4C8
:10100000B3EC8093D3019093D401A093D501B09316
:10101000D601FF90EF90DF90CF9008958823B1F034
:1010200020E030E040E85FE36091E5017091E60187
:101030008091E7019091E801F0D46093E50170930D
:10104000E6018093E7019093E80115C020E030E0CD
:1010500040E85FE36091E5017091E6018091E7016E
:101060009091E801D9D46093E5017093E6018093F3
:10107000E7019093E80120E030E040E05FE3609119
:10108000E5017091E6018091E7019091E80129D591
:10109000882364F480E090E0A0E8BFE38093E5015A
:1010A0009093E601A093E701B093E8010895CF93F0
:1010B000C82F4091930150E04930510508F08EC08F
:1010C000FA01EA5BFF4F0C94A010E2E6F0E08081A9
:1010D00082608083C23009F083C081E080939301F5
:1010E0007FC0E2E6F0E080818D7F8083C33019F419
:1010F00081E0EEDD0BC0C43019F480E0E9DD70C0A2
:10110000C23021F482E0809393016AC0C13009F0BB
:1011100067C088E08093930163C0833019F481E055
:1011200041DE0BC0843019F480E03CDE59C08230CF
:1011300021F483E08093930153C0C13009F050C083
:1011400088E0809393014CC0833019F481E094DEF1
:101150000BC0843019F480E08FDE42C0823021F46D
:1011600084E0809393013CC0C130D1F588E0809346
:10117000930136C0833019F481E0E7DE0BC0843080
:1011800019F480E0E2DE2CC0823021F488E0809304
:10119000930126C0C13021F588E08093930120C0DF
:1011A000833019F481E03ADF0BC0843019F480E019
:1011B00035DF16C0823021F488E08093930110C09F
:1011C000C13071F488E0809393010AC080919B0143
:1011D0008F5F80939B011092930102C01092930144
:1011E000CF91089589B380958F70089580FF04C0D2
:1011F00091E0FB01908302C0FB01108281FF04C0DB
:1012000091E0FA01908302C0FA01108282FF04C0CB
:1012100081E0F90180830895F9011082089589B36E
:1012200090E080959095807F9927959587959595E5
:10123000879595958795959587950895882349F085
:10124000E2E6F0E080818062808380818B7F808312
:1012500008C0E2E6F0E080818F7D80838081846039
:101260008083662349F0E2E6F0E080818064808339
:101270008081877F808306C0C698E2E6F0E08081A7
:1012800088608083442349F0E2E6F0E08081806852
:10129000808380818F7E80830895E2E6F0E0808104
:1012A0008F77808380818061808308951ABA8FEF61
:1012B0008BBB8093610010926200089580E090E003
:1012C000A0E2B2E48093EB019093EC01A093ED01D6
:1012D000B093EE0140E050E064EB72E44093F00123
:1012E0005093F1016093F2017093F30140E050E0FC
:1012F00068E472E44093E1015093E2016093E301FA
:101300007093E4018093D3019093D401A093D5010D
:10131000B093D60180E090E0A0E4B0E48093E501D2
:101320009093E601A093E701B093E801089581E06E
:101330008093F40140E050E060E272E44093F501F4
:101340005093F6016093F7017093F80180E090E00C
:10135000A4EBB2E48093F9019093FA01A093FB010E
:10136000B093FC014093FD015093FE016093FF0197
:10137000709300028093010290930202A0930302F3
:10138000B093040280E090E0A0E4B0E48093050212
:1013900090930602A0930702B093080245E150E043
:1013A00060E070E084EF91E00C94D212089545E182
:1013B00050E060E070E084EF91E00E94C212809102
:1013C000F4018F3F19F4B3DF79CF08958091F501CF
:1013D0009091F601A091F701B091F8018093EB0193
:1013E0009093EC01A093ED01B093EE018091F9018F
:1013F0009091FA01A091FB01B091FC018093F00162
:101400009093F101A093F201B093F3018091FD015B
:101410009091FE01A091FF01B09100028093E10143
:101420009093E201A093E301B093E4018091010263
:1014300090910202A0910302B09104028093D30123
:101440009093D401A093D501B093D6018091050269
:1014500090910602A0910702B09108028093E501E5
:101460009093E601A093E701B093E801089581E02D
:101470008093F4018091EB019091EC01A091ED013A
:10148000B091EE018093F5019093F601A093F701DE
:10149000B093F8018091F0019091F101A091F201D7
:1014A000B091F3018093F9019093FA01A093FB01AD
:1014B000B093FC018091E1019091E201A091E301E0
:1014C000B091E4018093FD019093FE01A093FF0190
:1014D000B09300028091D3019091D401A091D501E5
:1014E000B091D6018093010290930202A09303026F
:1014F000B09304028091E5019091E601A091E7018B
:10150000B091E8018093050290930602A093070230
:10151000B093080245E150E060E070E084EF91E0B4
:101520000C94D212089560E084E0ABD886E191E09B
:101530008BD861E083E0A5D883E291E085D82FEFD6
:1015400087EA91E6215080409040E1F700C000001A
:1015500072C8089570D860E082E093D881E391E08A
:1015600073D860E086E08DD885E391E06DD860E0C7
:101570008BE087D889E391E067D860E080E181D88B
:101580008DE391E061D863E080E07BD881E491E075
:101590005BD863E083E075D884E491E055D863E0DC
:1015A00089E06FD887E491E04FD863E08FE069D895
:1015B0008AE491E049C808953ED860E087E061D8A8
:1015C0008DE491E041D861E087E05BD883E591E06C
:1015D0003BD82FEF89E698E1215080409040E1F719
:1015E00000C0000008958F929F92AF92BF92CF9259
:1015F000DF92EF92FF920F931F93CF93DF93EC0153
:101600007B016A018901688179818A819B8106D386
:101610004B015C01F60171836083B701882777FD78
:101620008095982F2ED39B01AC0160E070E080E2A2
:1016300091E418D56B017C01B401882777FD809572
:10164000982F1FD39B01AC01688179818A819B818E
:10165000E3D1A7019601A3D420E030E040E05FE3AE
:10166000DCD1DCD2F80171836083DF91CF911F91CF
:101670000F91FF90EF90DF90CF90BF90AF909F9031
:101680008F900895EF92FF920F931F93CF93DF9364
:10169000CDB7DEB7A4970FB6F894DEBF0FBECDBFAF
:1016A00063E085E00E9441038091EF01882329F0E7
:1016B0008EE591E00E94240304C082E691E00E943E
:1016C000240363E08BE00E9441038091E9018823B9
:1016D00029F08EE591E00E94240304C082E691E0A7
:1016E0000E94240363E081E10E9441038091EA01AA
:1016F000882329F08EE591E00E94240304C082E64D
:1017000091E00E94240361E080E00E9441039E0179
:10171000235E3F4FAE014B5E5F4F61E070E08CE0B7
:1017200091E061DF9E01215E3F4FAE01495E5F4F58
:1017300061E070E088E091E056DF9E012F5D3F4F51
:10174000AE01475E5F4F61E070E084E091E04BDF07
:101750009E012D5D3F4FAE01455E5F4F61E070E041
:1017600080E091E040DF8CA18F938BA18F938C8DD3
:101770008F938B8D8F938AA18F9389A18F938A8D5D
:101780008F93898D8F9388A18F938F8D8F93888D61
:101790008F938F898F938E8D8F938D8D8F938E895D
:1017A0008F938D898F930F2EF6E6EF2EF1E0FF2EAB
:1017B000F02DFF92EF928E010F5F1F4F1F930F933B
:1017C000C5D4C8010E94240362E080E00E94410366
:1017D0009E01235E3F4FAE014B5E5F4F61E070E0C4
:1017E0008BEE91E000DF9E01215E3F4FAE01495E2E
:1017F0005F4F61E070E080EF91E0F5DE9E012F5DCC
:101800003F4FAE01475E5F4F61E070E081EE91E0D7
:10181000EADE9E012D5D3F4FAE01455E5F4F61E008
:1018200070E083ED91E0DFDE8CA18F938BA18F932D
:101830008C8D8F938B8D8F938AA18F9389A18F939A
:101840008A8D8F93898D8F9388A18F938F8D8F939E
:10185000888D8F938F898F938E8D8F938D8D8F939E
:101860008E898F938D898F93FF92EF921F930F93A1
:101870006DD40FB6F894DEBF0FBECDBFC8010E9475
:101880002403A4960FB6F894DEBF0FBECDBFDF9140
:10189000CF911F910F91FF90EF900895CF92DF921B
:1018A000EF92FF92C0900801D0900901E0900A01E8
:1018B000F0900B0120E030E040E252E4C701B601B5
:1018C00010D188233CF481E090E090938F018093C5
:1018D0008E0114C020E030E04EEB52E4C701B601A7
:1018E000A5D218162CF410928F0110928E0116C0FA
:1018F00080918E0190918F01892B81F020E030E062
:1019000040E85FE3C701B60188D060930801709397
:10191000090180930A0190930B010FC020E030E091
:1019200040E85FE3C701B60177D060930801709388
:10193000090180930A0190930B01FF90EF90DF90D3
:10194000CF900895B3DC0E947103EDDD03DE2FDD3F
:1019500048E966E080E190E00E94C60386E891E0F5
:101960000E94D7030E9413047894C2E6D0E08091CD
:101970009C01882391F188818E7F88838FDF2FEFF0
:1019800080E792E0215080409040E1F700C00000E5
:1019900088818160888343DC2AEE31E049EE51E0A2
:1019A0006FEE71E023DC0E947C049091EF018923AB
:1019B00080939A015ED89091E901892380939901DF
:1019C000D2D84091EA01482340939801609199014F
:1019D00080919A0133DC10929C0180919E018823B2
:1019E00041F000DC0E941F040E94350460DB10926D
:1019F0009E0180919D01882319F044DE10929D0183
:101A000080919B01882309F4B2CF31DDD5DDA2DDC1
:101A100039DE10929B01ABCF5058BB27AA270ED0BE
:101A2000CBC1BCD130F0C1D120F031F49F3F11F4D3
:101A30001EF48CC10EF4E095E7FB82C1E92FCDD1F5
:101A400080F3BA17620773078407950718F071F4DB
:101A50009EF5E5C10EF4E0950B2EBA2FA02D0B01DB
:101A6000B90190010C01CA01A0011124FF27591BE3
:101A700099F0593F50F4503E68F11A16F040A22FE9
:101A8000232F342F4427585FF3CF4695379527955A
:101A9000A795F0405395C9F77EF41F16BA0B620B59
:101AA000730B840BBAF09150A1F0FF0FBB1F661FA0
:101AB000771F881FC2F70EC0BA0F621F731F841FE3
:101AC00048F4879577956795B795F7959E3F08F009
:101AD000B3CF9395880F08F09927EE0F97958795C8
:101AE00008950AD108F481E008950CD065C15DD154
:101AF00040F054D130F021F45F3F19F021C1511171
:101B00008FC124C16AD198F39923C9F35523B1F346
:101B1000951B550BBB27AA2762177307840738F05C
:101B20009F5F5F4F220F331F441FAA1FA9F333D0BB
:101B30000E2E3AF0E0E830D091505040E695001C6F
:101B4000CAF729D0FE2F27D0660F771F881FBB1F2B
:101B5000261737074807AB07B0E809F0BB0B802D05
:101B6000BF01FF2793585F4F2AF09E3F510568F051
:101B7000E7C056C15F3FECF3983EDCF3869577955E
:101B80006795B795F7959F5FC9F7880F911D969553
:101B9000879597F90895E1E0660F771F881FBB1FAF
:101BA000621773078407BA0720F0621B730B840B5C
:101BB000BA0BEE1F88F7E095089519F40EF0C0C037
:101BC0002EC1C4C012D1C8F39638C0F707F80F92DF
:101BD000E8942BE33AEA48EB5FE7EFD10F920F92DC
:101BE0000F924DB75EB70F92A7D1EEE9F0E0B1D0FA
:101BF0004F915F91EF91FF91E595EE1FFF1F49F027
:101C0000FE57E0684427EE0F441FFA95E1F741952F
:101C1000550B19D10F9007FE0DC1089504D068949B
:101C2000B111FEC00895E1D088F09F5790F0B92F10
:101C30009927B751A0F0D1F0660F771F881F991F21
:101C40001AF0BA95C9F712C0B13081F0E8D0B1E00E
:101C50000895E5C0672F782F8827B85F39F0B93F1E
:101C6000CCF3869577956795B395D9F73EF4909523
:101C70008095709561957F4F8F4F9F4F0895E894A1
:101C800009C097FB3EF490958095709561957F4FC4
:101C90008F4F9F4F9923A9F0F92F96E9BB27939572
:101CA000F695879577956795B795F111F8CFFAF482
:101CB000BB0F11F460FF1BC06F5F7F4F8F4F9F4FB3
:101CC00016C0882311F096E911C0772321F09EE811
:101CD000872F762F05C0662371F096E8862F70E077
:101CE00060E02AF09A95660F771F881FDAF7880F51
:101CF0009695879597F90895990F0008550FAA0BA7
:101D0000E0E8FEEF16161706E807F907C0F012160E
:101D10001306E407F50798F0621B730B840B950B11
:101D200039F40A2661F0232B242B252B21F4089566
:101D30000A2609F4A140A6958FEF811D811D089503
:101D400097F99F6780E870E060E008959FEF80EC6E
:101D50000895DF93CF931F930F93FF92EF92DF923B
:101D60007B018C01689405C0DA2EEF0124D1FE01BD
:101D7000E894A5912591359145915591AEF3EF01E8
:101D80005DDEFE019701A801DA9479F7DF90EF900C
:101D9000FF900F911F91CF91DF91089500240A9435
:101DA0001616170618060906089500240A94121636
:101DB0001306140605060895092E0394000C11F469
:101DC000882352F0BB0F40F4BF2B11F460FF04C016
:101DD0006F5F7F4F8F4F9F4F089557FD9058440F6F
:101DE000551F59F05F3F71F04795880F97FB991F7A
:101DF00061F09F3F79F08795089512161306140637
:101E0000551FF2CF4695F1DF08C0161617061806C3
:101E1000991FF1CF86957105610508940895E8949E
:101E2000BB2766277727CB0197F9089565DF08F46C
:101E30008FEF08959B01AC0160E070E080E89FE3C4
:101E400054CE7ECF5BC1D1DFE8F39923D9F3940F51
:101E5000511DBBF39150504094F059F0882332F05B
:101E6000660F771F881F91505040C1F79E3F510564
:101E700044F7880F911D9695879597F908955F3FD0
:101E8000ACF0983E9CF0BB27869577956795B79503
:101E900008F4B1609395C1F7BB0F58F711F460FFD8
:101EA000E8CF6F5F7F4F8F4F9F4FE3CFB9CF0EF0DB
:101EB00025C14CCF689444CF98DFC8F39923D1F360
:101EC000C6F3DF93CF931F930F93FF92C92FDD27A4
:101ED00088232AF02197660F771F881FDAF720E002
:101EE00030E040E85FEB9FE3883920F0803E30F03F
:101EF00021968F7792DDE6ECF0E003C08EDDE3EF14
:101F0000F0E027DF8B01BE01EC01FB2E6F5771095A
:101F10007595771F880B990BB4DE28E132E741E312
:101F20005FE349D0AF2D9801AE01FF900F911F9153
:101F3000CF91DF9183DD40CFFA01DC01AA0FBB1FF7
:101F40009B01AC01BF5728F4222733274427507840
:101F50001FC0B75188F4AB2F0024469537952795BD
:101F6000011CA395D2F3002069F0220F331F441FF8
:101F7000B395DAF30DD050CD61307105A0E88A0732
:101F8000B94630F49B01AC01662777278827907803
:101F9000309621F0208331834283538308950BD000
:101FA0000BCFFCDE28F001DF18F0952309F0C8CE36
:101FB000CDCE112435CF11DFA0F3959FD1F3950F2E
:101FC00050E0551F629FF001729FBB27F00DB11DBD
:101FD000639FAA27F00DB11DAA1F649F6627B00D4D
:101FE000A11D661F829F2227B00DA11D621F739F36
:101FF000B00DA11D621F839FA00D611D221F749F44
:102000003327A00D611D231F849F600D211D822F8A
:10201000762F6A2F11249F5750408AF0E1F08823D1
:102020004AF0EE0FFF1FBB1F661F771F881F9150DE
:102030005040A9F79E3F510570F082CEF1CE5F3F30
:10204000ECF3983EDCF3869577956795B795F79511
:10205000E7959F5FC1F7FE2B880F911D9695879599
:1020600097F90895FA01EE0FFF1F3096210531050B
:1020700099F16115710561F48038BFE39B0749F15F
:1020800068949038810561F08038BFEF9B0741F07C
:10209000992342F5FF3FE1053105210511F1E8944F
:1020A0000894E795D901AA2329F4AB2FBE2FF85F36
:1020B000D0F310C0FF5F70F4A695E0F7F73950F049
:1020C00019F0FF3A38F49F779F930CD00F9007FCDC
:1020D000905808953EF03ACE60E070E080E89FE3CB
:1020E00008954FE79F775F934F933F932F93E4DEDD
:1020F0002F913F914F915F9152DF64CD9F3F31F01F
:10210000915020F4879577956795B795880F911D25
:102110009695879597F90895AA1BBB1B51E107C0B7
:10212000AA1FBB1FA617B70710F0A61BB70B881F67
:10213000991F5A95A9F780959095BC01CD010895F6
:10214000EE0FFF1F0590F491E02D09940F931F935C
:10215000CF93DF93CDB7DEB72E970FB6F894DEBFDF
:102160000FBECDBF0D891E8986E08C831A8309833B
:102170008FEF9FE79E838D83AE01475E5F4F6F8930
:10218000788DCE01019610D0EF81F885E00FF11F18
:1021900010822E960FB6F894DEBF0FBECDBFDF9132
:1021A000CF911F910F9108952F923F924F925F927E
:1021B0006F927F928F929F92AF92BF92CF92DF9257
:1021C000EF92FF920F931F93CF93DF93CDB7DEB7BC
:1021D0002C970FB6F894DEBF0FBECDBF7C016B010C
:1021E0008A01FC0117821682838181FFB0C1CE0172
:1021F00001964C01F7019381F60193FD859193FFC0
:1022000081916F01882309F49EC1853239F493FDD1
:10221000859193FF81916F01853221F4B70190E0A0
:10222000EDD1E8CF512C312C20E02032A0F48B32BC
:1022300069F030F4803259F0833269F420612CC0A7
:102240008D3239F0803339F4216026C02260246059
:1022500023C0286021C027FD27C030ED380F3A3059
:1022600078F426FF06C0FAE05F9E300D1124532E4D
:1022700013C08AE0389E300D1124332E20620CC02A
:102280008E3221F426FD5FC1206406C08C3611F425
:10229000206802C0883641F4F60193FD859193FFD2
:1022A00081916F018111C1CF982F9F7D95549330FB
:1022B00028F40C5F1F4FFFE3F9830DC0833631F024
:1022C000833771F0833509F057C021C0F801808150
:1022D00089830E5F1F4F44244394512C540114C032
:1022E0003801F2E06F0E711CF801A080B18026FF6A
:1022F00003C0652D70E002C06FEF7FEFC5012C8732
:1023000072D12C0183012C852F77222E16C0380123
:10231000F2E06F0E711CF801A080B18026FF03C0AF
:10232000652D70E002C06FEF7FEFC5012C8750D1A3
:102330002C012C852068222E830123FC19C0832DBB
:1023400090E048165906A0F4B70180E290E056D11B
:102350003A94F5CFF50127FC859127FE81915F0125
:10236000B70190E04BD131103A94F1E04F1A510887
:102370004114510479F7DEC0843611F0893631F505
:10238000F80127FF07C060817181828193810C5F12
:102390001F4F08C060817181882777FD8095982F35
:1023A0000E5F1F4F2F76B22E97FF09C09095809534
:1023B000709561957F4F8F4F9F4F2068B22E2AE016
:1023C00030E0A4014DD1A82EA81843C0853729F4C8
:1023D0002F7EB22E2AE030E025C0F22FF97FBF2EEB
:1023E0008F36C1F018F4883579F0ADC0803719F018
:1023F000883721F0A8C02F2F2061B22EB4FE0DC067
:102400008B2D8460B82E09C024FF0AC09F2F9660D0
:10241000B92E06C028E030E005C020E130E002C05F
:1024200020E132E0F801B7FE07C06081718182814E
:1024300093810C5F1F4F06C06081718180E090E046
:102440000E5F1F4FA4010CD1A82EA818FB2DFF77FB
:10245000BF2EB6FE0BC02B2D2E7FA51450F4B4FE5C
:102460000AC0B2FC08C02B2D2E7E05C07A2C2B2D65
:1024700003C07A2C01C0752C24FF0DC0FE01EA0DAB
:10248000F11D8081803311F4297E09C022FF06C02E
:102490007394739404C0822F867809F0739423FD9B
:1024A00012C020FF06C05A2C731418F4530C57188E
:1024B000732C731460F4B70180E290E02C879ED0F7
:1024C00073942C85F6CF731410F4371801C0312C97
:1024D00024FF11C0B70180E390E02C878FD02C85BA
:1024E00022FF16C021FF03C088E590E002C088E704
:1024F00090E0B7010CC0822F867851F021FD02C018
:1025000080E201C08BE227FD8DE2B70190E076D03A
:10251000A51430F4B70180E390E070D05A94F8CF5E
:10252000AA94F401EA0DF11D8081B70190E066D014
:10253000A110F6CF332009F45DCEB70180E290E020
:102540005DD03A94F7CFF7018681978102C08FEF73
:102550009FEF2C960FB6F894DEBF0FBECDBFDF9174
:10256000CF911F910F91FF90EF90DF90CF90BF9090
:10257000AF909F908F907F906F905F904F903F9023
:102580002F900895DC01CB01FC01E199FECF06C03C
:10259000FFBBEEBBE09A31960DB20D924150504018
:1025A000B8F70895DC01CB0102C02D9105D0415050
:1025B0005040D8F70895262FE199FECF9FBB8EBBE0
:1025C0002DBB0FB6F894E29AE19A0FBE01960895DA
:1025D000FC010590615070400110D8F780959095EE
:1025E0008E0F9F1F0895FC016150704001900110F3
:1025F000D8F7809590958E0F9F1F08950F931F9386
:10260000CF93DF93182F092FEB018B8181FD03C03E
:102610008FEF9FEF20C082FF10C04E815F812C8121
:102620003D81421753077CF4E881F9819F012F5FB8
:102630003F4F39832883108306C0E885F985812FB1
:102640000995892B29F72E813F812F5F3F4F3F83CB
:102650002E83812F902FDF91CF911F910F9108959D
:10266000FA01AA27283051F1203181F1E8946F93C3
:102670006E7F6E5F7F4F8F4F9F4FAF4FB1E03ED069
:10268000B4E03CD0670F781F891F9A1FA11D680F07
:10269000791F8A1F911DA11D6A0F711D811D911D3A
:1026A000A11D20D009F468943F912AE0269F1124AF
:1026B0003019305D3193DEF6CF010895462F477013
:1026C000405D4193B3E00FD0C9F7F6CF462F4F706E
:1026D000405D4A3318F0495D31FD4052419302D0CC
:1026E000A9F7EACFB4E0A695979587957795679572
:1026F000BA95C9F700976105710508959B01AC0172
:102700000A2E06945795479537952795BA95C9F798
:10271000620F731F841F951FA01D0895F894FFCFAB
:102720000000C142666636420000A4410000A1429A
:10273000E803F4016400526F6F6D20436F6E747292
:102740006F6C005365726166696D2043756E6861D8
:1027500000524543004151530052414400534F4CF5
:1027600000535400313A00323A00333A0053415694
:10277000454400504152414D4554455253004F4E3F
:1027800020004F4646002532642E25316420253234
:10279000642E253164202532642E253164202532B3
:0C27A000642E2531640048656C6C6F00ED
:00000001FF
